:100000000C9446000C9465000C9465000C946500FB
:100010000C9465000C9465000C9465000C946500CC
:100020000C9465000C9465000C94EB050C94650031
:100030000C94E7040C9465000C9465000C94D905AD
:100040000C9465000C9465000C9465000C9465009C
:100050000C9465000C9465000C9465000C9465008C
:100060000C9465000C9465000C947D050C9465005F
:100070000C9465000C9451060C9465000C9465007A
:100080000C9465000C9465000C94650011241FBE4F
:10009000CFEFD0E1DEBFCDBF14E0A0E0B1E0E6E7F6
:1000A000F8E200E00BBF02C007900D92A238B10742
:1000B000D9F714E0A2E8B4E001C01D92A83FB1074F
:1000C000E1F70E9495020C9439140C9400008F9271
:1000D0009F92AF92BF92CF92DF92EF92FF920F93D7
:1000E0001F93CF93DF9380E090E02CEA34E0FC0193
:1000F000EE0FFF1FE20FF31F1182108201968F3067
:100100009105A9F70BE010E0CC24DD24EE24FF24B8
:100110006894E2F888249924C3E0D0E00F2EFCEA2A
:10012000AF2EF4E0BF2EF02D01C06C010E946D13C4
:10013000B7010E94C112C114D10451F4009769F5AE
:100140000E946D13BE010E94C1120196C9F325C021
:1001500021E0C216D10461F482309105F1F40E94CD
:100160006D13B7010E94C11282309105C1F315C011
:1001700022E0C216D10461F48130910571F40E942D
:100180006D13B7010E94C11281309105C1F305C002
:1001900023E0C216D10409F4C401F801EE0FFF1FD9
:1001A000EA0DFB1D91838083015010402FEF0F3F1C
:1001B000120709F0BACFDF91CF911F910F91FF90F5
:1001C000EF90DF90CF90BF90AF909F908F90089569
:1001D0000F931F93CF93DF938091CA049091CB0428
:1001E0008333910524F5C0E0D0E004E811E0CE01AE
:1001F00088589F4F60E070E00E94AF06E091CA040B
:10020000F091CB043197EE0FFF1FEE0FFF1FEE0FA3
:10021000FF1FEC0FFD1FE00FF11F808190E061E0F8
:1002200070E00E94AF062196C830D10501F7809199
:10023000CA049091CB048A3091050CF43FC004E1CC
:1002400013E0C0E7D0E0CE0160E070E00E94AF06AE
:10025000F80181918F0190E061E070E00E94AF06AB
:100260002196C837D10579F704E313E0C8E6D0E05A
:10027000CE0160E070E00E94AF06F80181918F012D
:1002800090E061E070E00E94AF062196C037D10592
:1002900079F704E213E0C0E6D0E0CE0160E070E060
:1002A0000E94AF06F80181918F0190E061E070E05B
:1002B0000E94AF062196C836D10579F7DF91CF911C
:1002C0001F910F9108950F931F93CF93DF930CE726
:1002D00011E0C0E4D0E0CE0160E070E00E94AF0623
:1002E000F80181918F0190E061E070E00E94AF061B
:1002F0002196C834D10579F70CE113E0C0E7D0E0CE
:10030000CE0160E070E00E94AF06F80181918F019C
:1003100090E061E070E00E94AF062196C837D105F9
:1003200079F70CE313E0C8E6D0E0CE0160E070E0BE
:100330000E94AF06F80181918F0190E061E070E0CA
:100340000E94AF062196C037D10579F70CE213E081
:10035000C0E6D0E0CE0160E070E00E94AF06F80198
:1003600081918F0190E061E070E00E94AF062196DC
:10037000C836D10579F704E413E0C8E5D0E0CE0132
:1003800060E070E00E94AF06F80181918F0190E07B
:1003900061E070E00E94AF062196C036D10579F782
:1003A0000CE413E0C0E5D0E0CE0160E070E00E9414
:1003B000AF06F80181918F0190E061E070E00E944A
:1003C000AF062196C835D10579F70E94E800DF9184
:1003D000CF911F910F91089578940E94320782B1B6
:1003E000806382B91C981D9AD098D198D298D398DE
:1003F000D498D69A0E94CA068CE090E060E070E043
:100400000E94AF0681E090E060E070E00E94AF06DD
:1004100008958DE89BE59093CF048093CE041092CD
:10042000D3041092D2041092D1041092D00481E02F
:1004300090E060E070E00E94AF06809182049091AD
:1004400083040E9472130E946D130E9467008EE065
:1004500090E090939B0480939A0481E090E09093C5
:100460009D0480939C041092CD041092CC04909330
:10047000CB048093CA040E9463018EB585608EBD53
:100480008FB58C7F8FBD8EB588608EBD8EB58F7E0B
:100490008EBD87B7806187BF8091CE049091CF04D5
:1004A000892F990F990B8BBD8091CE049091CF0429
:1004B0008ABDEAE8F0E085E08083ABE8B0E08C91AB
:1004C0008C7F8C9380818860808380818F7E808305
:1004D000EDE7F0E08081806180838DE38093870089
:1004E00089E0809386008AE191E060E671E00E94F5
:1004F000110908958CEA94E06AE974E00E94860884
:100500009C018230910531F481E090E09093D30416
:100510008093D2048091CA049091CB046CEA74E079
:100520004AE954E00E943E0708952F923F924F926D
:100530005F926F927F928F929F92AF92BF92CF9273
:10054000DF92EF92FF920F931F93DF93CF9300D030
:1005500000D0CDB7DEB70E94EC010E94F209EE2474
:10056000FF24CC24DD241C821B821A8219822224BF
:1005700033244424552400E010E088249924AA243C
:10058000BB24A3940F2EFCE96F2EF4E07F2EF02DF8
:100590001AC01C821B8217C0BC82AB8214C01C8292
:1005A0001B8211C000E010E00EC01C821B820BC039
:1005B000BC82AB8208C01C821B8205C01A821982D1
:1005C00002C01A8219828091040190910501813044
:1005D000910509F060C0C99907C00115110531F4F2
:1005E0000E94370A850102C000E010E0CB9907C0E5
:1005F0008114910431F40E944A0A450102C0882402
:100600009924C89907C0C114D10431F40E94370A53
:10061000650102C0CC24DD24CC9907C0E114F104AB
:1006200031F40E94240A750102C0EE24FF24CA9905
:10063000B0CF8B819C81009731F680910801909119
:1006400009018130910551F41092050110920401C5
:100650000E940902BC82AB822501B5CF8230910590
:1006600059F4E2E0F0E0F0930501E09304010E9408
:100670005D0ABC82AB82A7CF8330910509F08CCF95
:1006800083E090E090930501809304010E94620B47
:10069000BC82AB8298CF82309105D1F4C9990AC04F
:1006A0000115110549F40E94F209B0920501A092CA
:1006B000040102C000E010E0CA9971CFEB81FC8117
:1006C000309709F080CF0E943F0BBC82AB827BCF7A
:1006D0008330910569F4C99965CF0115110509F0B9
:1006E00072CF0E94F209B0920501A09204016BCF73
:1006F00084309105F1F5C89907C0C114D10431F4D3
:100700000E94A50E650102C0CC24DD24CC9907C04F
:10071000E114F10431F40E94C00E750102C0EE2410
:10072000FF24CA9942CF8B819C81009709F04BCF5F
:1007300080910601909107018130910569F40E9432
:10074000F209B0920501A0920401109209011092E1
:100750000801BC82AB8237CF8230910509F028CFE7
:100760000E9409021092050110920401BC82AB8222
:100770002ACF8530910511F5C89907C0C114D1045D
:1007800031F40E94DB0E650102C0CC24DD24CC993B
:1007900007C0E114F10431F40E940F0F750102C08B
:1007A000EE24FF24CA9907CFEB81FC81309709F032
:1007B0000ACF0E94430FBC82AB8205CF8091D20446
:1007C0009091D304009709F0FECEC8991FC0811400
:1007D0009104F1F4F301808191818230910541F41B
:1007E00084E090E0918380830E947A02450110C0EA
:1007F000F301808191818130910551F483E090E093
:10080000918380830E947A02450102C08824992442
:10081000CA9927C04114510431F5F30180819181B7
:100820008130910561F482E090E091838083B09201
:10083000D104A092D0040E947A02250114C0F301D1
:10084000808191818330910571F484E090E09183FF
:100850008083B092D104A092D0040E947A02250134
:1008600002C044245524CC991DC001151105E1F4A2
:10087000F301808191818430910541F482E090E020
:10088000918380830E947A0285010EC0F3018081EA
:1008900091818330910541F4B182A0820E947A0255
:1008A000850102C000E010E0C99924C080910A01CE
:1008B00090910B01009709F12114310401F5F30126
:1008C000808191818130910529F0808191818330EF
:1008D0009105A9F4EAE9F4E08081918118161906DE
:1008E00074F4808191810197918380830E947A02C0
:1008F000150105C02224332402C022243324CB99BD
:100900005DCE80910A0190910B01009709F459CEB8
:1009100089819A81009709F056CEF30180819181F7
:100920008130910531F0808191818330910509F00A
:100930004ACEEAE9F4E0808191818E3091050CF095
:1009400042CE808191810196918380830E947A02B8
:10095000BA82A98238CE6091CE047091CF048827E4
:1009600077FD8095982F0E947E1020910001309194
:10097000010140910201509103010E94840F0E94E5
:10098000DE107093CF046093CE048091CE049091DA
:10099000CF04892F990F990B8BBD8091CE04909134
:1009A000CF048ABD08958DE89BE59093CF04809392
:1009B000CE048091CE049091CF04892F990F990B8A
:1009C0008BBD8091CE049091CF048ABD08951F9273
:1009D0000F920FB60F920BB60F9211242F933F93E5
:1009E0004F935F936F937F938F939F93AF93BF9337
:1009F000EF93FF938091D2049091D304009709F074
:100A000069C08CEA94E00E942008E82FF92F80E06A
:100A100090E04CEA54E021913191DC01AA0FBB1F18
:100A2000A40FB51F11963C932E9301968F3091051C
:100A300091F78091D0049091D1041816190684F58D
:100A40008091D0049091D1048230910501F580917C
:100A50009C0490919D048230910539F481E090E0EE
:100A600090939D0480939C040DC080919C04909170
:100A70009D048430910531F483E090E090939D04CF
:100A800080939C041092D1041092D00409C08091EC
:100A9000D0049091D10401969093D1048093D00416
:100AA0008CEA94E06AE974E00E9486089C01823036
:100AB000910531F481E090E09093D3048093D204C7
:100AC0008091CA049091CB046CEA74E04AE954E046
:100AD0000E943E07FF91EF91BF91AF919F918F913F
:100AE0007F916F915F914F913F912F910F900BBE2E
:100AF0000F900FBE0F901F9018951F920F920FB678
:100B00000F920BB60F9211242F933F934F935F9345
:100B10006F937F938F939F93AF93BF93EF93FF93C5
:100B20008091D2049091D304009771F58091CC0408
:100B30009091CD0401969093CD048093CC04809144
:100B4000CC049091CD046AE070E00E94C11200973D
:100B5000E9F48091CC049091CD0418161906B4F4F0
:100B60008091CA049091CB0401969093CB0480931A
:100B7000CA040E94E8000E94AB0486E391E06EE69E
:100B800071E00E94110902C00E94D304FF91EF910D
:100B9000BF91AF919F918F917F916F915F914F9195
:100BA0003F912F910F900BBE0F900FBE0F901F9093
:100BB00018951F920F920FB60F9211248F939F9347
:100BC00093B180E3892783B99F918F910F900FBED6
:100BD0000F901F9018951F920F920FB60F920BB6A1
:100BE0000F9211242F933F938F939F93EF93FF9333
:100BF000809184049091850401969093850480935C
:100C00008404E0918604F0918704EE0FFF1FE45600
:100C1000FB4F20813181809184049091850482175B
:100C2000930794F180918604909187048730910511
:100C30009CF0109285041092840414BC12BE13BE62
:100C400015BC87B78D7F87BF87B78F7B87BF109213
:100C500087041092860414C0E0918604F091870402
:100C6000EE0FFF1FE457FB4F8081918181BF809180
:100C7000860490918704019690938704809386045C
:100C80001092850410928404FF91EF919F918F91AF
:100C90003F912F910F900BBE0F900FBE0F901F90A2
:100CA00018951F920F920FB60F9211248F939F9356
:100CB00080918204909183040196909383048093A1
:100CC00082049F918F910F900FBE0F901F901895E7
:100CD000AA9A8FE891E00197F1F700C0000083B372
:100CE000AA9882958F7090E008959FE094BB8260EF
:100CF00085BB0E9468060895EF92FF920F931F93A1
:100D0000CF93DF938C010E947506EC01C295D295BA
:100D1000D07FDC27C07FDC27C8010E947506C82B66
:100D2000D92B7E018C2F9F2DDF91CF911F910F9199
:100D3000FF90EF90089580E090E00E947C0687FD90
:100D4000FACF08952FEF24BB82959295907F982734
:100D5000807F9827862B85BB0E94680608950F9395
:100D60001F93CF93DF93EC018B0195958795959514
:100D7000879595958795959587950E94A206CE01B2
:100D8000B8010E94A2060E949B06DF91CF911F919D
:100D90000F91089583E090E060E070E00E94A20669
:100DA0008FE19EE40197F1F700C0000083E090E03E
:100DB00060E070E00E94A2068FE19EE40197F1F7E7
:100DC00000C0000083E090E060E070E00E94A206B6
:100DD0008FE19EE40197F1F700C0000082E090E00F
:100DE00060E070E00E94A2068FE19EE40197F1F7B7
:100DF00000C000008CE290E060E070E00E94AF066E
:100E000088E090E060E070E00E94AF0681E090E052
:100E100060E070E00E94AF0686E090E060E070E085
:100E20000E94AF0608950F931F930E947C06082F1F
:100E3000192F0E949B06802F912F1F910F910895CB
:100E4000662339F490E0806860E070E00E94AF06AD
:100E5000089590E0805C9F4F806860E070E00E94A1
:100E6000AF06089581E080938A00EDE7F0E080818D
:100E70008F7E80838081846080830895AF92BF924B
:100E8000CF92DF92EF92FF920F931F93DF93CF9356
:100E900000D0CDB7DEB79A838983062FE72E5A019B
:100EA00069012230310509F4BEC081E090E060E0C4
:100EB00070E00E94AF0680E061E00E94200780E0C1
:100EC00090E061E070E00E94AF0680E060E00E9488
:100ED000200789819A81833391053CF487E090E073
:100EE00061E070E00E94AF0606C08BE290E061E036
:100EF00070E00E94AF068E2DE02EF82E01E010E08B
:100F0000F701808191818130910559F4802F61E052
:100F10000E94200783E090E061E070E00E94AF064D
:100F200025C08230910559F4802F60E00E9420078F
:100F300083E090E061E070E00E94AF0617C083306C
:100F40009105A1F4802F60E00E94200783E090E0EB
:100F500061E070E00E94AF06802F61E00E942007F0
:100F600083E090E061E070E00E94AF0682E090E0F4
:100F7000E80EF91E0F30110519F00F5F1F4FC0CF9B
:100F8000F5012281338180819181F1E0CF16D10476
:100F900099F42230310529F48F5F61E00E94200727
:100FA00004C08F5F60E00E94200785E090E061E070
:100FB00070E00E94AF0637C0C114D104A1F5213002
:100FC000310559F48F5F61E00E94200786E090E0D0
:100FD00061E070E00E94AF0626C02230310559F46E
:100FE0008F5F61E00E94200784E090E061E070E0A4
:100FF0000E94AF0618C02330310559F48F5F60E0BE
:101000000E94200786E090E061E070E00E94AF0659
:101010000AC08F5F60E00E94200784E090E061E0FA
:1010200070E00E94AF060F900F90CF91DF911F915B
:101030000F91FF90EF90DF90CF90BF90AF90089509
:10104000EF92FF920F931F93CF93DF937C01E4ED18
:10105000F4E0EF016E9611921192EC17FD07D9F7AB
:10106000F701008111810E946D1364E070E00E941D
:10107000C1120115110561F4009789F503E010E034
:101080000E946D13B8010E94C1120196C9F327C0D6
:101090000130110571F48230910509F504E010E08A
:1010A0000E946D13B8010E94C11282309105C1F3F4
:1010B00016C00230110571F48130910581F404E00D
:1010C00010E00E946D13B8010E94C1128130910599
:1010D000C1F305C00330110511F480E090E0909356
:1010E000D5048093D404D701E6EDF4E08D919D9171
:1010F00081939193CE17DF07C9F784ED94E0DF91D8
:10110000CF911F910F91FF90EF900895EF92FF9272
:10111000CF93DF93FB01A081B181AA0FBB1FA80F62
:10112000B91F2D913C9111972330310579F48281BB
:1011300093818130910509F444C082819381833089
:10114000910509F441C0C1E0D0E060C0A081B18147
:10115000AA0FBB1FA80FB91F2D913C9111972130E9
:10116000310579F4828193818130910581F1828109
:101170009381C1E0D0E082309105F9F0C0E0D0E089
:101180001CC020813181220F331F820F931FDC018D
:101190008D919C9111978230910509F03FC0828119
:1011A000938183309105B1F082819381C1E0D0E0D9
:1011B0008430910511F0C0E0D0E0C230D10531F5A6
:1011C0000BC0C2E0D0E008C0C2E0D0E005C0C2E081
:1011D000D0E002C0C2E0D0E081E090E09093D30480
:1011E0008093D20485E090E00E94AE1390E02091BD
:1011F000CA043091CB04821793071CF08F3F9105EE
:1012000019F40E94690D02C00E945A0C7E018C2FB5
:101210009F2DDF91CF91FF90EF900895C0E0D0E037
:10122000F5CFCF93DF93A62FB72FBD01EEE9F4E002
:10123000282F392FC901CCE8D4E0AF01425F5F4FBE
:10124000DB012D913D91BD0121933193DC012D9165
:101250003D91CD0129933993E417F50789F783B7B9
:10126000856083BF12BE83B7886083BF87B7826003
:1012700087BF80918C0481BF809186049091870400
:101280000196909387048093860485B5856085BD1B
:1012900014BC87B7806487BFDF91CF91089581E048
:1012A00090E060E070E00E94AF0681E060E00E94A4
:1012B000200783E590E061E070E00E94AF0684E5DE
:1012C00090E061E070E00E94AF0681E490E061E0B0
:1012D00070E00E94AF0682E590E061E070E00E945D
:1012E000AF0684E590E061E070E00E94AF0688E020
:1012F00060E00E94200783E590E061E070E00E94DA
:10130000AF0685E490E061E070E00E94AF0684E5FE
:1013100090E061E070E00E94AF0684E590E061E05B
:1013200070E00E94AF0689E490E061E070E00E9406
:10133000AF068EE490E061E070E00E94AF0687E4C3
:1013400090E061E070E00E94AF0683E590E061E02C
:1013500070E00E94AF0683E061E00E94200788E40D
:1013600090E061E070E00E94AF0689E490E061E007
:1013700070E00E94AF0687E490E061E070E00E94B8
:10138000AF0688E490E061E070E00E94AF0680E282
:1013900090E061E070E00E94AF0683E590E061E0DC
:1013A00070E00E94AF0683E490E061E070E00E948C
:1013B000AF068FE490E061E070E00E94AF0682E546
:1013C00090E061E070E00E94AF0685E490E061E0AB
:1013D00070E00E94AF0683E590E061E070E00E945B
:1013E000AF0608950F931F93CF93DF930E943207A8
:1013F00004E513E0C0E4D0E0CE0160E070E00E94BC
:10140000AF06F80181918F0190E061E070E00E94E9
:10141000AF062196C834D10579F70E944F0980E0C4
:1014200060E00E94200780E090E061E070E00E94B0
:10143000AF0681E090E09093090180930801DF916D
:10144000CF911F910F9108950E944F0982E061E0B2
:101450000E94200780E090E061E070E00E94AF060B
:1014600083E090E0909309018093080108950E9421
:101470004F0980E060E00E94200780E090E061E09A
:1014800070E00E94AF0681E090E0909309018093A4
:10149000080108950E944F0987E060E00E9420073C
:1014A00080E090E061E070E00E94AF0682E090E0B2
:1014B000909309018093080108950F931F93CF9390
:1014C000DF930CE513E0C0E4D0E0CE0160E070E013
:1014D0000E94AF06F80181918F0190E061E070E019
:1014E0000E94AF062196C835D10579F781E090E0DA
:1014F00060E070E00E94AF0682E090E061E070E0A2
:101500000E94AF0685E490E061E070E00E94AF06C3
:101510008EE690E061E070E00E94AF0681E690E028
:1015200061E070E00E94AF0682E690E061E070E06A
:101530000E94AF068CE690E061E070E00E94AF068A
:1015400085E690E061E070E00E94AF068FE290E0F7
:1015500061E070E00E94AF0684E490E061E070E03A
:101560000E94AF0689E690E061E070E00E94AF065D
:1015700083E790E061E070E00E94AF0681E690E0D2
:1015800061E070E00E94AF0682E690E061E070E00A
:101590000E94AF068CE690E061E070E00E94AF062A
:1015A00085E690E061E070E00E94AF0680E061E0D7
:1015B0000E94200781E490E061E070E00E94AF06A5
:1015C00083E690E061E070E00E94AF0683E690E081
:1015D00061E070E00E94AF0685E690E061E070E0B7
:1015E0000E94AF068CE690E061E070E00E94AF06DA
:1015F00085E690E061E070E00E94AF0682E790E04F
:1016000061E070E00E94AF0681E690E061E070E08A
:101610000E94AF0684E790E061E070E00E94AF06B0
:1016200089E690E061E070E00E94AF068FE690E00E
:1016300061E070E00E94AF068EE690E061E070E04D
:101640000E94AF068FE061E00E94200780910A01AE
:1016500090910B018130910539F481E090E061E0D7
:1016600070E00E94AF0606C080E090E061E070E0AC
:101670000E94AF06DF91CF911F910F9108958FE0E7
:1016800061E00E94200780910A0190910B01813056
:10169000910559F480E090E061E070E00E94AF06AF
:1016A00010920B0110920A01089581E090E061E030
:1016B00070E00E94AF0681E090E090930B01809370
:1016C0000A010895EF92FF920F931F93DF93CF9338
:1016D00000D000D000D0CDB7DEB70F2EFCE6EF2E45
:1016E000F3E0FF2EF02D00E410E0C80160E070E0B0
:1016F0000E94AF06F70181917F0190E061E070E008
:101700000E94AF060F5F1F4F0834110571F781E08B
:1017100090E060E070E00E94AF0681E061E00E942E
:101720002007CE01019660E170E043E050E00E94A6
:101730009E138981882331F090E061E070E00E947F
:10174000AF0606C080E290E061E070E00E94AF0664
:101750008A81882331F090E061E070E00E94AF065A
:1017600006C080E290E061E070E00E94AF068B81ED
:10177000882331F090E061E070E00E94AF0606C07F
:1017800080E290E061E070E00E94AF0680E290E0CD
:1017900061E070E00E94AF068CE490E061E070E0F0
:1017A0000E94AF06CE01049665E170E043E050E090
:1017B0000E949E138C81882331F090E061E070E0FC
:1017C0000E94AF0606C080E290E061E070E00E94F7
:1017D000AF068D81882331F090E061E070E00E94D7
:1017E000AF0606C080E290E061E070E00E94AF06C4
:1017F0008E81882331F090E061E070E00E94AF06B6
:1018000006C080E290E061E070E00E94AF0680E0F8
:1018100060E00E94200780E090E061E070E00E94BC
:10182000AF0688E490E061E070E00E94AF0689E6D0
:1018300090E061E070E00E94AF0687E690E061E032
:1018400070E00E94AF0688E690E061E070E00E94E0
:10185000AF0680E290E061E070E00E94AF0683E5B1
:1018600090E061E070E00E94AF0683E690E061E006
:1018700070E00E94AF068FE690E061E070E00E94A9
:10188000AF0682E790E061E070E00E94AF0685E677
:1018900090E061E070E00E94AF0626960FB6F894E3
:1018A000DEBF0FBECDBFCF91DF911F910F91FF9093
:1018B000EF900895EF92FF920F931F93DF93CF93D2
:1018C00000D00F92CDB7DEB70E94320784E090E0DF
:1018D000909305018093040182E090E090930701CA
:1018E000809306010F2EF4E5EF2EF3E0FF2EF02D8E
:1018F00000E410E0C80160E070E00E94AF06F7016C
:1019000081917F0190E061E070E00E94AF060F5F7F
:101910001F4F0834110571F78CE091E062E571E02A
:101920000E94110981E090E060E070E00E94AF0643
:1019300080E060E00E94200787E490E061E070E0D2
:101940000E94AF0681E690E061E070E00E94AF0681
:101950008DE690E061E070E00E94AF0685E690E0E1
:1019600061E070E00E94AF0680E290E061E070E02C
:101970000E94AF068FE490E061E070E00E94AF0645
:1019800086E790E061E070E00E94AF0685E690E0B7
:1019900061E070E00E94AF0682E790E061E070E0F5
:1019A0000E94AF0680E061E00E9420078CE490E096
:1019B00061E070E00E94AF0680E290E061E070E0DC
:1019C0000E94AF068091CA049091CB04BE016F5F64
:1019D0007F4F4AE050E00E947D138091CA049091AD
:1019E000CB048A30910524F480E28A838B8305C07E
:1019F0008436910514F480E28B83898190E061E064
:101A000070E00E94AF068A8190E061E070E00E9481
:101A1000AF068B8190E061E070E00E94AF0680E24B
:101A200090E061E070E00E94AF0689E061E00E9412
:101A3000200780E090E061E070E00E94AF0682E560
:101A400090E061E070E00E94AF0685E690E061E022
:101A500070E00E94AF0680E790E061E070E00E94D5
:101A6000AF068CE690E061E070E00E94AF0681E690
:101A700090E061E070E00E94AF0689E790E061E0ED
:101A800070E00E94AF068CE060E00E9420078DE4C9
:101A900090E061E070E00E94AF0685E690E061E0D2
:101AA00070E00E94AF068EE690E061E070E00E9478
:101AB000AF0685E790E061E070E00E94AF060F900E
:101AC0000F900F90CF91DF911F910F91FF90EF90AA
:101AD0000895DF93CF9300D00F92CDB7DEB70E9469
:101AE000320788E291E064E471E00E94110985E028
:101AF00090E0909305018093040181E090E060E024
:101B000070E00E94AF0680E060E00E9420078EE453
:101B100090E061E070E00E94AF0685E690E061E051
:101B200070E00E94AF0687E790E061E070E00E94FD
:101B3000AF0680E290E061E070E00E94AF0688E4CA
:101B400090E061E070E00E94AF0689E690E061E01D
:101B500070E00E94AF0687E690E061E070E00E94CE
:101B6000AF0688E690E061E070E00E94AF0680E298
:101B700090E061E070E00E94AF0683E590E061E0F4
:101B800070E00E94AF0683E690E061E070E00E94A2
:101B9000AF068FE690E061E070E00E94AF0682E75A
:101BA00090E061E070E00E94AF0685E690E061E0C1
:101BB00070E00E94AF0680E061E00E9420078CE4A4
:101BC00090E061E070E00E94AF0680E290E061E0AA
:101BD00070E00E94AF068091CA049091CB04BE01D0
:101BE0006F5F7F4F4AE050E00E947D138091CA04EE
:101BF0009091CB048A30910524F480E28A838B8310
:101C000005C08436910514F480E28B83898190E0CD
:101C100061E070E00E94AF068A8190E061E070E0D0
:101C20000E94AF068B8190E061E070E00E94AF06F9
:101C300080E290E061E070E00E94AF068EE490E008
:101C400061E070E00E94AF0681E690E061E070E044
:101C50000E94AF068DE690E061E070E00E94AF0662
:101C600085E690E061E070E00E94AF068AE390E0D4
:101C700061E070E00E94AF068BE061E00E94200707
:101C80008DE090E060E070E00E94AF060F900F9052
:101C90000F90CF91DF910895DF93CF9300D00F92F3
:101CA000CDB7DEB78CE090E060E070E00E94AF0658
:101CB0008091CA049091CB04BE016F5F7F4F4AE0D0
:101CC00050E00E947D138091CA049091CB048A3029
:101CD000910524F480E28A838B8305C084369105C4
:101CE00014F480E28B83CE01019665E170E043E05D
:101CF00050E00E94B61385E090E06091CA040E9413
:101D0000C01380E190E06091F2040E94C01381E171
:101D100090E06091F4040E94C01382E190E0609131
:101D2000F6040E94C0130E94F20981E090E09093B3
:101D300005018093040110920901109208010F908F
:101D40000F900F90CF91DF91089589E061E00E949C
:101D5000200780E290E061E070E00E94AF068BE037
:101D600060E00E94200780E090E061E070E00E9467
:101D7000AF0681E090E090930701809306010895FB
:101D80008BE060E00E94200780E290E061E070E07C
:101D90000E94AF0689E061E00E94200780E090E0A9
:101DA00061E070E00E94AF0682E090E0909307014E
:101DB000809306010895809188049091890483306E
:101DC000910561F121E030E030938B0420938A0487
:101DD00020917403309175032A3531053CF021E4DC
:101DE00030E0309375032093740306C02F5F3F4F9C
:101DF0003093750320937403855F61E00E94200790
:101E0000809174039091750361E070E00E94AF06C9
:101E100080918804855F61E00E9420070895809189
:101E20008804909189048330910561F121E030E0CC
:101E300030938B0420938A042091740330917503AE
:101E4000223431053CF42AE530E0309375032093C9
:101E5000740306C0215030403093750320937403FF
:101E6000855F61E00E942007809174039091750363
:101E700061E070E00E94AF0680918804855F61E0B8
:101E80000E942007089580918A0490918B048130EC
:101E90009105C9F58091880490918904FC01EE0FA9
:101EA000FF1FEE50FB4F2091740330917503318377
:101EB000208321E430E0309375032093740301966E
:101EC000909389048093880410928B0410928A0462
:101ED000855F61E00E9420078091880490918904C9
:101EE0008330910581F41092890410928804109235
:101EF0008B0410928A0481E490E0909375038093A0
:101F000074030E944C0E0895A0E2B0E0EAE8FFE0FE
:101F10000C94E81269837A838B839C832D833E83A0
:101F20004F835887CE010196BE01675F7F4F0E94A5
:101F30005812CE010596BE016F5E7F4F0E94581267
:101F40009985923078F089898230C0F0943019F404
:101F5000823041F4CBC0843019F4923079F4C6C099
:101F6000923051F481E02A859A89291709F480E09A
:101F70008A87CE010996BCC0823051F481E02A855F
:101F80009A89291709F480E08A8BCE014196B0C066
:101F90006D847E848F849888ED88FE880F89188DE3
:101FA000E0E2F0E080E090E0DC01AA24BB246501DF
:101FB00020E030E0A901B301617070706115710516
:101FC000D1F02E0D3F1D401F511F15012601280E77
:101FD000391E4A1E5B1E81E090E0A0E0B0E02E15A5
:101FE0003F054007510718F080E090E0DC01820DCA
:101FF000931DA41DB51DAA0CBB1CCC1CDD1C17FF1A
:1020000009C061E0262E312C412C512CA228B32886
:10201000C428D528319749F0EE0CFF1C001F111F72
:102020009694879477946794C6CF6B897C89EB8567
:10203000FC856E0F7F1F6E5F7F4F7C8F6B8F61E023
:10204000EA857A89E71709F460E06A8F6B8D7C8DE9
:1020500010C0FC01E170F070309729F0569547955B
:10206000379527955068B695A795979587956F5F93
:102070007F4FB7FDEECF0CC0880F991FAA1FBB1F63
:1020800057FD8160220F331F441F551F6150704060
:102090008030E0E09E07E0E0AE07E0E4BE0760F3DA
:1020A0006B8F7C8F6FE7E62EF12C012D112DE8222E
:1020B000F9220A231B2360E4E616F1040105110549
:1020C00061F487FD0AC0211531054105510529F04C
:1020D000805C9F4FAF4FBF4F80788D8F9E8FAF8FAB
:1020E000B8A383E0898FCE01499602C086E793E0CA
:1020F0000E948A11A096E2E10C940413A8E0B0E0DB
:10210000E4E8F0E10C94F4127B018C0183E0898314
:10211000D801C7018827B7FD83959927AA27BB2730
:10212000282F8A83E114F1040105110519F482E0D6
:10213000898337C08EE190E09C838B83222389F0D2
:1021400080E0E81680E0F80680E0080780E81807DD
:1021500069F110950095F094E094E11CF11C011DCB
:10216000111DED82FE820F831887C801B7010E94FE
:1021700030119C01215030401216130694F4022EA7
:1021800004C0EE0CFF1C001F111F0A94D2F7ED8251
:10219000FE820F8318878EE190E0821B930B9C8355
:1021A0008B83CE0101960E948A1104C060E070E02A
:1021B00080E09FEC2896E6E00C941013ACE0B0E0D1
:1021C000E4EEF0E10C94F81269837A838B839C83AC
:1021D000CE010196BE016B5F7F4F0E9458128D8128
:1021E000823081F1823070F1843021F48E81882335
:1021F00069F10AC02F81388537FD24C06E812F31E7
:1022000031053CF0662311F120E030E040E050E879
:1022100021C08EE190E0821B930B29853A854B8586
:102220005C8504C056954795379527958A95D2F7D2
:10223000662381F050954095309521953F4F4F4F43
:102240005F4F08C020E030E0A90104C02FEF3FEF4E
:102250004FEF5FE7B901CA012C96E2E00C9414132A
:10226000AF92BF92CF92DF92EF92FF920F931F93A4
:102270007B018C0180E0E81680E0F80681E0080729
:1022800080E0180758F4EFEFEE16F1040105110590
:1022900009F090F480E090E0DC0117C0F0E0EF1668
:1022A000F0E0FF06F0E00F07F1E01F0750F480E1D7
:1022B00090E0A0E0B0E009C088E090E0A0E0B0E0ED
:1022C00004C088E190E0A0E0B0E020E230E040E02F
:1022D00050E0281B390B4A0B5B0B5701680104C007
:1022E000D694C794B794A7948A95D2F7D601C5011E
:1022F00082589C4FFC018081281B310941095109FA
:10230000C9011F910F91FF90EF90DF90CF90BF9088
:10231000AF900895EF92FF920F931F93CF93DF93A7
:10232000FC01248135814681578161818081823021
:1023300020F44061EFEFF0E0A3C0843009F49BC0CB
:10234000823009F492C0211531054105510509F487
:102350008FC00280F381E02D8FEFE238F8070CF098
:102360005AC0C2E8DFEFCE1BDF0BCA31D1056CF5D6
:1023700079018A010C2E04C016950795F794E7940D
:102380000A94D2F781E090E0A0E0B0E00C2E04C007
:10239000880F991FAA1FBB1F0A94D2F70197A109A2
:1023A000B10982239323A423B52321E030E040E048
:1023B00050E00097A105B10519F420E030E0A90133
:1023C0002E293F29402B512B03C020E030E0A901EA
:1023D000DA01C9018F779070A070B07080349105D8
:1023E000A105B10539F427FF09C0205C3F4F4F4FCD
:1023F0005F4F04C0215C3F4F4F4F5F4FE1E0F0E083
:10240000203080E0380780E0480780E4580728F54E
:10241000E0E0F0E022C0E038F1056CF5E158FF4F54
:10242000DA01C9018F779070A070B0708034910587
:10243000A105B10539F427FF09C0205C3F4F4F4F7C
:102440005F4F04C0215C3F4F4F4F5F4F57FF05C0A8
:102450005695479537952795319687E05695479538
:10246000379527958A95D1F70BC0E0E0F0E005C0DD
:10247000E0E0F0E005C0EFEFF0E020E030E0A9019F
:102480008E2F879588278795942F9F776795662746
:102490006795E695E22EA92FA82BFE2FF62B622F2B
:1024A000732F8A2F9F2FCDB7DEB7E6E00C94101361
:1024B000DC01FB012C9111963C91119712968C91A5
:1024C0001297482F4F7750E0982F991F9927991FFF
:1024D00013966C911397862F880F892B90E0661FB7
:1024E0006627661F6183009739F52115310541057F
:1024F000510511F482E029C082E89FEF9383828323
:1025000067E0220F331F441F551F6A95D1F783E000
:10251000808309C0220F331F441F551F828193817E
:10252000019793838283203080E0380780E048075A
:1025300080E4580778F320C08F3F910579F4211586
:1025400031054105510519F484E08083089544FF65
:1025500003C081E0808310C010820EC08F5790406E
:102560009383828383E0808387E0220F331F441F9D
:10257000551F8A95D1F7506424833583468357834A
:10258000089597FB092E07260AD077FD04D00CD0BA
:1025900006D000201AF4709561957F4F0895F6F7E4
:1025A000909581959F4F0895AA1BBB1B51E107C0D1
:1025B000AA1FBB1FA617B70710F0A61BB70B881FD3
:1025C000991F5A95A9F780959095BC01CD01089562
:1025D0002F923F924F925F926F927F928F929F9233
:1025E000AF92BF92CF92DF92EF92FF920F931F9321
:1025F000CF93DF93CDB7DEB7CA1BDB0B0FB6F894D2
:10260000DEBF0FBECDBF09942A88398848885F8411
:102610006E847D848C849B84AA84B984C884DF8082
:10262000EE80FD800C811B81AA81B981CE0FD11D66
:102630000FB6F894DEBF0FBECDBFED010895AF9287
:10264000BF92CF92DF92EF92FF920F931F93CF939F
:10265000DF93EC01688179818A819B816115710525
:102660008105910521F464E279ED8BE597E02DE198
:1026700033EF41E050E00E94FC1379018A0127EA20
:1026800031E440E050E00E94DD135B016C01C801C1
:10269000B7012CEE34EF4FEF5FEF0E94DD136A0DB0
:1026A0007B1D8C1D9D1D97FF04C0615070408040B4
:1026B0009048688379838A839B837F77CB01DF91FE
:1026C000CF911F910F91FF90EF90DF90CF90BF902F
:1026D000AF9008950E941F1308958EE794E00E9422
:1026E0001F130895A0E0B0E080937E0490937F04D0
:1026F000A0938004B09381040895FB019F01E894A6
:102700004230C4F04532B4F44A3029F497FB1EF449
:10271000909581959F4F642F77270E94D412805DFA
:102720008A330CF0895D8193CB010097A1F716F4F1
:102730005DE251931082C9010C94CD13DC01CB01F1
:10274000FC01E199FECF06C0FFBBEEBBE09A3196DB
:102750000DB20D9241505040B8F70895E199FECF67
:102760009FBB8EBBE09A99278DB30895DC01CB0106
:1027700003C02D910E94C11341505040D0F70895DD
:10278000262FE199FECF9FBB8EBB2DBB0FB6F894D1
:10279000E29AE19A0FBE01960895DC01FC01672FD1
:1027A00071917723E1F7329704C07C916D93708328
:1027B0006291AE17BF07C8F30895629FD001739F5F
:1027C000F001829FE00DF11D649FE00DF11D929FCD
:1027D000F00D839FF00D749FF00D659FF00D99270C
:1027E000729FB00DE11DF91F639FB00DE11DF91F30
:1027F000BD01CF011124089597FB092E05260ED0A7
:1028000057FD04D014D00AD0001C38F450954095E0
:10281000309521953F4F4F4F5F4F0895F6F79095B4
:102820008095709561957F4F8F4F9F4F0895A1E2DE
:102830001A2EAA1BBB1BFD010DC0AA1FBB1FEE1F3A
:10284000FF1FA217B307E407F50720F0A21BB30B85
:10285000E40BF50B661F771F881F991F1A9469F701
:1028600060957095809590959B01AC01BD01CF015D
:062870000895F894FFCF6B
:102876006666663F010002000100010013001300B6
:102886001300190019001E001E001E001E001E0067
:1028960019001900130013001A0017001600130080
:1028A60011000F000E001900190019001900190077
:1028B60019001900030003000300030003000300CE
:1028C600030003000A0007000A000A000A000A00C3
:1028D60003000300040005000500050005000100D3
:1028E60001000100020001000200010000000303D4
:1028F6001F1F00000000001F0000000000001D1543
:102906001700000000001F151100000000001F0442
:102916001C000000000017151D0000000000171520
:102926001F00000000001F101000000000001F150F
:102936001F00000000001F151D00000000001F11F1
:102946001F001F0000001F00001F000000001D15D3
:1029560017001F0000001F1515001F0000001F04B0
:102966001C001F00000017151D001F000000171592
:102976001F001F0000001F1410001F0000001F157D
:102986001F001F0000001F151D001F00001F111F44
:10299600001D151700001F00001D1517001D151737
:1029A600001D1517001F1511001D1517001F041C0B
:1029B600001D15170017151D001D15170017151FEB
:1029C600001D1517001F1410001D1517001F151FD9
:1029D600001D1517001F151D001D1517001F111FBF
:1029E600001F151100001F00001F1511001D1517EF
:1029F600001F1511001F1511001F1511001F041CC3
:102A0600001F15110017151D001F15110017151FA2
:102A1600001F1511001F1410001F1511001F151F90
:102A2600001F1511001F151D001F1511001F111F76
:102A3600001F041C00001F00001F041C001D1517AA
:102A4600001F041C001F1511001F041C001F041C7E
:102A5600001F041C0017151D001F041C0017151F5E
:102A6600001F041C001F1410001F041C001F151F4C
:102A7600001F041C001F111F0017151D00010D1358
:102A8600130D010000030E13130E0300000A1F119D
:102A9600111F0A000000030F0F03000000000A1FA9
:102AA6001F0A0000001F131F1F131F00001F1B1FFC
:102AB6001F1B1F00001F111111111F00000E151BF7
:102AC6001B150E000004021F02040000001F111156
:102AD600111F0000001F1B151B1F00000004081F0C
:102AE6000804000041000000000000000000000192
:102AF6000202030303030404040404040404050596
:102B0600050505050505050505050505050506066D
:102B1600060606060606060606060606060606064F
:102B2600060606060606060606060606060607073D
:102B3600070707070707070707070707070707071F
:102B4600070707070707070707070707070707070F
:102B560007070707070707070707070707070707FF
:102B660007070707070707070707070707070808ED
:102B760008080808080808080808080808080808CF
:102B860008080808080808080808080808080808BF
:102B960008080808080808080808080808080808AF
:102BA600080808080808080808080808080808089F
:102BB600080808080808080808080808080808088F
:102BC600080808080808080808080808080808087F
:102BD600080808080808080808080808080808086F
:102BE600080808080808080808080808080801006E
:022BF6000000DD
:04000005008001086E
:00000001FF
